{
  "contractName": "Data",
  "abi": [
    {
      "inputs": [],
      "name": "getData",
      "outputs": [
        {
          "internalType": "uint256",
          "name": "",
          "type": "uint256"
        }
      ],
      "stateMutability": "view",
      "type": "function"
    }
  ],
  "bytecode": "0x608060405234801561001057600080fd5b5060b68061001f6000396000f3fe6080604052348015600f57600080fd5b506004361060285760003560e01c80633bc5de3014602d575b600080fd5b60336047565b604051603e9190605d565b60405180910390f35b60008054905090565b6057816076565b82525050565b6000602082019050607060008301846050565b92915050565b600081905091905056fea2646970667358221220389c8ebd5207a37c554261f7e1e2f5082c235fd32163c2707a5ec52162580e6664736f6c63430008000033",
  "immutableReferences": {},
  "source": "//SPDX-License-identifier: MIT \npragma solidity ^0.8.0;\n\ncontract Data {\n  uint internal _data;\n\n  function getData() public view returns(uint) {\n    return _data;\n  }\n}",
  "sourcePath": "/Users/hoangdung/Documents/BLOCKCHAIN/proxy-solidity-smart-contract/contracts/Data.sol",
  "compiler": {
    "name": "solc",
    "version": "0.8.0+commit.c7dfd78e.Emscripten.clang"
  },
  "schemaVersion": "3.4.1",
  "updatedAt": "2021-08-14T17:10:41.308Z",
  "devdoc": {
    "kind": "dev",
    "methods": {},
    "version": 1
  },
  "userdoc": {
    "kind": "user",
    "methods": {},
    "version": 1
  }
}