{
  "contractName": "V2",
  "abi": [
    {
      "anonymous": false,
      "inputs": [
        {
          "indexed": false,
          "internalType": "uint256",
          "name": "data",
          "type": "uint256"
        }
      ],
      "name": "V2LogicCallEvent",
      "type": "event"
    },
    {
      "inputs": [],
      "name": "getData",
      "outputs": [
        {
          "internalType": "uint256",
          "name": "",
          "type": "uint256"
        }
      ],
      "stateMutability": "view",
      "type": "function",
      "constant": true
    },
    {
      "inputs": [
        {
          "internalType": "uint256",
          "name": "a",
          "type": "uint256"
        },
        {
          "internalType": "uint256",
          "name": "b",
          "type": "uint256"
        }
      ],
      "name": "logicCall",
      "outputs": [],
      "stateMutability": "nonpayable",
      "type": "function"
    },
    {
      "inputs": [
        {
          "internalType": "address payable",
          "name": "_to",
          "type": "address"
        },
        {
          "internalType": "uint256",
          "name": "amount",
          "type": "uint256"
        }
      ],
      "name": "sendEth",
      "outputs": [
        {
          "internalType": "uint256",
          "name": "",
          "type": "uint256"
        }
      ],
      "stateMutability": "nonpayable",
      "type": "function"
    }
  ],
  "bytecode": "0x608060405234801561001057600080fd5b50610362806100206000396000f3fe608060405234801561001057600080fd5b50600436106100415760003560e01c80631b8792fa146100465780633bc5de301461006257806349dcbc5e14610080575b600080fd5b610060600480360381019061005b91906101d7565b6100b0565b005b61006a6100ff565b6040516100779190610222565b60405180910390f35b61009a6004803603810190610095919061019b565b610108565b6040516100a79190610222565b60405180910390f35b80826100bc919061023d565b6000819055507f908d0b572eb781e2f64b581613a036fa2fc96b8789cef38c9673480ea57823986000546040516100f39190610222565b60405180910390a15050565b60008054905090565b60008273ffffffffffffffffffffffffffffffffffffffff166108fc839081150290604051600060405180830381858888f19350505050158015610150573d6000803e3d6000fd5b508273ffffffffffffffffffffffffffffffffffffffff1631905092915050565b600081359050610180816102fe565b92915050565b60008135905061019581610315565b92915050565b600080604083850312156101ae57600080fd5b60006101bc85828601610171565b92505060206101cd85828601610186565b9150509250929050565b600080604083850312156101ea57600080fd5b60006101f885828601610186565b925050602061020985828601610186565b9150509250929050565b61021c816102c5565b82525050565b60006020820190506102376000830184610213565b92915050565b6000610248826102c5565b9150610253836102c5565b9250827fffffffffffffffffffffffffffffffffffffffffffffffffffffffffffffffff03821115610288576102876102cf565b5b828201905092915050565b600061029e826102a5565b9050919050565b600073ffffffffffffffffffffffffffffffffffffffff82169050919050565b6000819050919050565b7f4e487b7100000000000000000000000000000000000000000000000000000000600052601160045260246000fd5b61030781610293565b811461031257600080fd5b50565b61031e816102c5565b811461032957600080fd5b5056fea26469706673582212209b1f5810bd2825a3ba81f81af580e9c51a1dc7a7f3ce2ca9213c164096667ce064736f6c63430008000033",
  "immutableReferences": {},
  "source": "//SPDX-License-Identifier: MIT \npragma solidity ^0.8.0;\n\nimport \"./Data.sol\";\n\ncontract V2 is Data{\n\n  event V2LogicCallEvent(uint data);\n  function logicCall(uint a, uint b) external {\n    _data = a + b;\n    emit V2LogicCallEvent(_data);\n  }\n\n  function sendEth(address payable _to, uint amount) external returns(uint){\n    _to.transfer(amount);\n    return _to.balance;\n  }\n}",
  "sourcePath": "/Users/hoangdung/Documents/BLOCKCHAIN/proxy-solidity-smart-contract/contracts/V2.sol",
  "compiler": {
    "name": "solc",
    "version": "0.8.0+commit.c7dfd78e.Emscripten.clang"
  },
  "schemaVersion": "3.4.1",
  "updatedAt": "2021-08-14T17:10:42.610Z",
  "networkType": "ethereum",
  "devdoc": {
    "kind": "dev",
    "methods": {},
    "version": 1
  },
  "userdoc": {
    "kind": "user",
    "methods": {},
    "version": 1
  }
}