{
  "contractName": "Vproxy",
  "abi": [
    {
      "inputs": [
        {
          "internalType": "address",
          "name": "contractAddress",
          "type": "address"
        }
      ],
      "stateMutability": "nonpayable",
      "type": "constructor"
    },
    {
      "anonymous": false,
      "inputs": [
        {
          "indexed": true,
          "internalType": "address",
          "name": "newContractAddress",
          "type": "address"
        }
      ],
      "name": "UpdatenContractAddress",
      "type": "event"
    },
    {
      "stateMutability": "payable",
      "type": "fallback",
      "payable": true
    },
    {
      "inputs": [],
      "name": "getData",
      "outputs": [
        {
          "internalType": "uint256",
          "name": "",
          "type": "uint256"
        }
      ],
      "stateMutability": "view",
      "type": "function",
      "constant": true
    },
    {
      "inputs": [
        {
          "internalType": "address",
          "name": "_newAddress",
          "type": "address"
        }
      ],
      "name": "updateContractAddress",
      "outputs": [],
      "stateMutability": "nonpayable",
      "type": "function"
    },
    {
      "inputs": [],
      "name": "getContractAddress",
      "outputs": [
        {
          "internalType": "address",
          "name": "",
          "type": "address"
        }
      ],
      "stateMutability": "view",
      "type": "function",
      "constant": true
    },
    {
      "inputs": [],
      "name": "getOwner",
      "outputs": [
        {
          "internalType": "address",
          "name": "",
          "type": "address"
        }
      ],
      "stateMutability": "view",
      "type": "function",
      "constant": true
    },
    {
      "inputs": [
        {
          "internalType": "address",
          "name": "_newOnwerAddress",
          "type": "address"
        }
      ],
      "name": "changeOwner",
      "outputs": [],
      "stateMutability": "nonpayable",
      "type": "function"
    }
  ],
  "bytecode": "0x608060405234801561001057600080fd5b5060405161095438038061095483398181016040528101906100329190610112565b80600260006101000a81548173ffffffffffffffffffffffffffffffffffffffff021916908373ffffffffffffffffffffffffffffffffffffffff16021790555033600160006101000a81548173ffffffffffffffffffffffffffffffffffffffff021916908373ffffffffffffffffffffffffffffffffffffffff1602179055508073ffffffffffffffffffffffffffffffffffffffff167fd4b1f253be90e85edba022db47ddcef61b9c545fd52a494dcaf25568caf56b0360405160405180910390a250610184565b60008151905061010c8161016d565b92915050565b60006020828403121561012457600080fd5b6000610132848285016100fd565b91505092915050565b60006101468261014d565b9050919050565b600073ffffffffffffffffffffffffffffffffffffffff82169050919050565b6101768161013b565b811461018157600080fd5b50565b6107c1806101936000396000f3fe60806040526004361061004e5760003560e01c806332a2c5d0146102075780633bc5de3014610232578063893d20e81461025d578063a6f9dae114610288578063bdf3e088146102b15761004f565b5b6000600260009054906101000a900473ffffffffffffffffffffffffffffffffffffffff169050600073ffffffffffffffffffffffffffffffffffffffff16600260009054906101000a900473ffffffffffffffffffffffffffffffffffffffff1673ffffffffffffffffffffffffffffffffffffffff161415610108576040517f08c379a00000000000000000000000000000000000000000000000000000000081526004016100ff906106ec565b60405180910390fd5b600160009054906101000a900473ffffffffffffffffffffffffffffffffffffffff1673ffffffffffffffffffffffffffffffffffffffff163373ffffffffffffffffffffffffffffffffffffffff1614610198576040517f08c379a000000000000000000000000000000000000000000000000000000000815260040161018f906106ac565b60405180910390fd5b600080368080601f016020809104026020016040519081016040528093929190818152602001838380828437600081840152601f19601f820116905080830192505050505050509050600080825160208401855af43d604051816000823e8260008114610203578282f35b8282fd5b34801561021357600080fd5b5061021c6102da565b6040516102299190610691565b60405180910390f35b34801561023e57600080fd5b50610247610304565b604051610254919061070c565b60405180910390f35b34801561026957600080fd5b5061027261030d565b60405161027f9190610691565b60405180910390f35b34801561029457600080fd5b506102af60048036038101906102aa9190610564565b610337565b005b3480156102bd57600080fd5b506102d860048036038101906102d39190610564565b61040b565b005b6000600260009054906101000a900473ffffffffffffffffffffffffffffffffffffffff16905090565b60008054905090565b6000600160009054906101000a900473ffffffffffffffffffffffffffffffffffffffff16905090565b3373ffffffffffffffffffffffffffffffffffffffff16600160009054906101000a900473ffffffffffffffffffffffffffffffffffffffff1673ffffffffffffffffffffffffffffffffffffffff16146103c7576040517f08c379a00000000000000000000000000000000000000000000000000000000081526004016103be906106ac565b60405180910390fd5b80600160006101000a81548173ffffffffffffffffffffffffffffffffffffffff021916908373ffffffffffffffffffffffffffffffffffffffff16021790555050565b3373ffffffffffffffffffffffffffffffffffffffff16600160009054906101000a900473ffffffffffffffffffffffffffffffffffffffff1673ffffffffffffffffffffffffffffffffffffffff161461049b576040517f08c379a0000000000000000000000000000000000000000000000000000000008152600401610492906106ac565b60405180910390fd5b600073ffffffffffffffffffffffffffffffffffffffff168173ffffffffffffffffffffffffffffffffffffffff16141561050b576040517f08c379a0000000000000000000000000000000000000000000000000000000008152600401610502906106cc565b60405180910390fd5b80600260006101000a81548173ffffffffffffffffffffffffffffffffffffffff021916908373ffffffffffffffffffffffffffffffffffffffff16021790555050565b60008135905061055e81610774565b92915050565b60006020828403121561057657600080fd5b60006105848482850161054f565b91505092915050565b61059681610738565b82525050565b60006105a9601c83610727565b91507f5670726f78793a2043616c6c657220776173206e6f74206f776e6572000000006000830152602082019050919050565b60006105e9602a83610727565b91507f496e76616c696420616464726573732c206661696c656420746f20757064617460008301527f65206164647265737373000000000000000000000000000000000000000000006020830152604082019050919050565b600061064f601883610727565b91507f436f6e74726163742061646472657373206973207a65726f00000000000000006000830152602082019050919050565b61068b8161076a565b82525050565b60006020820190506106a6600083018461058d565b92915050565b600060208201905081810360008301526106c58161059c565b9050919050565b600060208201905081810360008301526106e5816105dc565b9050919050565b6000602082019050818103600083015261070581610642565b9050919050565b60006020820190506107216000830184610682565b92915050565b600082825260208201905092915050565b60006107438261074a565b9050919050565b600073ffffffffffffffffffffffffffffffffffffffff82169050919050565b6000819050919050565b61077d81610738565b811461078857600080fd5b5056fea264697066735822122096d473ff86b377cf0bb3514e784c2c3bb11c0942f6642126adb4bd3d39630e2a64736f6c63430008000033",
  "immutableReferences": {},
  "source": "//SPDX-License-Identifier: MIT\npragma solidity ^0.8.0;\n\nimport \"./Data.sol\";\n\ncontract Vproxy is Data {\n    address private _owner;\n    address private _contractAddress;\n\n    event UpdatenContractAddress(address indexed newContractAddress);\n\n    constructor(address contractAddress) {\n        _contractAddress = contractAddress;\n        _owner = msg.sender;\n        emit UpdatenContractAddress(contractAddress);\n    }\n\n    modifier onlyOwner() {\n        require(_owner == msg.sender, \"Vproxy: Caller was not owner\");\n        _;\n    }\n\n    //@TODO diamond pattern\n    fallback() external payable {\n      // bool successCall = false;\n      // bytes memory resData;\n      // (successCall, resData) = _contractAddress.delegatecall(msg.data);\n      // require(successCall, \"Proxy: Internal call was failed\");\n\n      address implementation = _contractAddress;\n      \n      require(_contractAddress != address(0), \"Contract address is zero\");\n      require(msg.sender == _owner, \"Vproxy: Caller was not owner\");\n\n      bytes memory data = msg.data;\n      assembly {\n        let result := delegatecall(\n            gas(),\n            implementation,\n            add(data, 0x20),\n            mload(data),\n            0,\n            0\n        )\n        let size := returndatasize()\n        let ptr := mload(0x40)\n        returndatacopy(ptr, 0, size)\n        \n        switch result\n          case 0 {\n              revert(ptr, size)\n          }\n          default {\n              return(ptr, size)\n          }\n      }\n    }\n\n    //@TODO: imporve this by using multisignature algorithm\n    function updateContractAddress(address _newAddress) external onlyOwner {\n        require(\n            _newAddress != address(0),\n            \"Invalid address, failed to update addresss\"\n        );\n\n        _contractAddress = _newAddress;\n    }\n\n    function getContractAddress() public view returns (address) {\n        return _contractAddress;\n    }\n\n    function getOwner() public view returns (address) {\n        return _owner;\n    }\n\n    function changeOwner(address _newOnwerAddress) public onlyOwner {\n        _owner = _newOnwerAddress;\n    }\n}\n",
  "sourcePath": "/Users/hoangdung/Documents/BLOCKCHAIN/proxy-solidity-smart-contract/contracts/Vproxy.sol",
  "compiler": {
    "name": "solc",
    "version": "0.8.0+commit.c7dfd78e.Emscripten.clang"
  },
  "schemaVersion": "3.4.1",
  "updatedAt": "2021-08-14T17:10:42.614Z",
  "networkType": "ethereum",
  "devdoc": {
    "kind": "dev",
    "methods": {},
    "version": 1
  },
  "userdoc": {
    "kind": "user",
    "methods": {},
    "version": 1
  }
}